:02000002D0002C
:1040000000400D001C530D00000006001A000501C1
:084010000401DB0700000000C1
:0440180054500D00F3
:10401C0009480A49884208B505D0094A824202D0AB
:10402C00121A00F0CFFF0748074A0021121A00F0BD
:10403C00D7FF014808BD00BF64E4032054520D00B3
:10404C0004E5032004E50320F0E7032070B5074ED8
:10405C00074C00F0BFFEA41BA4080025A54200D10C
:10406C0070BD56F8043B98470135F7E724520D0014
:10407C0048520D0000F01CB808B500F09BF8BDE8E4
:10408C00084000F069BE00F06DBA00F073BA007819
:10409C00B0FA80F04009704701230370704710B5E7
:1040AC000446006808B100F065FA204610BD000017
:1040BC0070B500F005FE4FF4E13100F0F5FD012183
:1040CC001A2000F0F7FE0121192000F0F3FE002168
:1040DC001B2000F0EFFE00211A2000F0FCFE002156
:1040EC00192000F0F8FE642000F0B8F800F0E8FDAC
:1040FC002849294D00F099FC01211A2000F0EBFE13
:10410C004FF4FA7000F0AAF800211A2000F0E3FE38
:10411C00224A2349012000F029F90023C0224FF440
:10412C00E131012000F062F900F0CAFD1D4900F0F8
:10413C007CFC41F2883000F02DFA00242E463046EB
:10414C0000F07AFFA04206D915F8011B012000F0FF
:10415C0015F90134F3E700F0B3FD1349134D00F0EA
:10416C0064FC4FF47A7000F015FA00242E463046A9
:10417C0000F062FFA04206D915F8011B012000F0E7
:10418C00FDF80134F3E700F09BFDBDE870400849F1
:10419C0000F04BBC68500D0064E4032098E503204C
:1041AC0014E5032078500D009B500D007FE4032094
:1041BC00B0500D0010B5012000F0E8F850B101200E
:1041CC0000F0ECF8044600F07BFD0368E1B29B685C
:1041DC009847F0E700F074FD03681B69984748B1F5
:1041EC0000F06EFD03685B699847C1B2012000F0D6
:1041FC00C5F8EFE710BD000010B5094C0023236093
:10420C00A380A3710320A3F58033A36000F02EF9E3
:10421C002046044A0449BDE8104000F0BBBE00BF74
:10422C0008E5032004E50320AB400D0008B5024B64
:10423C001B685B6C019308BD4802030008B5024B78
:10424C001B689B6C019308BD4802030008B5024B28
:10425C001B685B68019308BD1802030008B5024B8C
:10426C001B689B68019308BD1802030008B5024B3C
:10427C001B685B69019308BD1802030008B5024B6B
:10428C001B689B68019308BD2C02030008B5024B08
:10429C001B68DB68019308BD2C02030008B5024BB8
:1042AC001B681B69019308BD2C02030008B5024B67
:1042BC001B681B6A019308BD2802030008B5024B5A
:1042CC001B685B6A019308BD2802030008B5024B0A
:1042DC001B689B6A019308BD2802030008B5024BBA
:1042EC001B68DB6A019308BD2802030008B5024B6A
:1042FC001B681B6B019308BD2802030008B5024B19
:10430C001B685B6B019308BD2802030008B5024BC8
:10431C001B681B6C019308BD2802030008B5024BF7
:10432C001B685B69019308BD6402030008B5024B6E
:10433C001B689B68019308BD6802030008B5024B1B
:10434C001B68DB68019308BD6802030008B5024BCB
:10435C001B68DB69019308BD3002030008B5024BF2
:10436C001B681B6A019308BD3002030008B5024BA1
:10437C001B681B68019308BD3C02030008B5024B87
:10438C001B68DB68019308BD3C02030008B5024BB7
:10439C001B681B69019308BD3C02030008B5024B66
:1043AC001B685B69019308BD3C02030008B5024B16
:1043BC001B689B69019308BD3C02030008B5024BC6
:1043CC001B68DB69019308BD3C02030008B5024B76
:1043DC001B681B6A019308BD3C02030008B5024B25
:1043EC001B689B6A019308BD3C02030008B5024B95
:1043FC001B68DB6A019308BD3C02030008B5024B45
:10440C001B681B68019308BD4C02030008B5024BE6
:10441C001B685B68019308BD4C02030008B5024B96
:10442C001B681B69019308BD4C02030008B5024BC5
:10443C001B685B69019308BD4C02030008B5024B75
:10444C001B689B69019308BD4C02030008B5024B25
:10445C001B68DB69019308BD4C02030008B5024BD5
:10446C001B681B6A019308BD4C02030008B5024B84
:10447C001B685B68019308BD2002030008B5024B62
:10448C001B685B69019308BD2002030008B5034B50
:10449C001B68D3F88830019308BD0000200203008C
:1044AC0008B5034B1B68D3F89430019308BD00008A
:1044BC002002030008B5024B1B68DB6B019308BD9F
:1044CC004402030008B5024B1B685B68019308BDEE
:1044DC004002030008B5024B1B689B68019308BDA2
:1044EC004002030008B5024B1B68DB68019308BD52
:1044FC004002030008B5024B1B681B69019308BD01
:10450C004002030008B5024B1B685B69019308BDB0
:10451C004002030008B5024B1B689B69019308BD60
:10452C004002030008B5024B1B68DB69019308BD10
:10453C004002030008B5024B1B681B6A019308BDBF
:10454C004002030008B5024B1B681B6B019308BDAE
:10455C004002030008B5024B1B685B6B019308BD5E
:10456C004002030008B5024B1B681B68019308BD91
:10457C001C02030008B5024B1B685B68019308BD65
:10458C001C02030008B5024B1B685B6C019308BD51
:10459C001C0203000021FFF771BF10B50446006830
:1045AC0008B1FFF74BFE204610BD000010B5064CBD
:1045BC00002320462360FFF739FE2046034A0449B6
:1045CC00BDE8104000F0E6BC1CE6032004E5032027
:1045DC00A7450D00002240681146FFF78BBF002253
:1045EC0040681146FFF7A6BF002240681146FFF74E
:1045FC00B1BF40680022FFF7A5BF4068002281F0E0
:10460C000101FFF78FBF002340681A461946FFF7D8
:10461C0081BF002340681A461946FFF773BF00227A
:10462C0040681146FFF756BF406800220221FFF791
:10463C0059BF002340681A46FFF744BF084B10B51A
:10464C00282422461846002100F0CAFC054B0480A1
:10465C004FF0FF32426004225A60034A1A6010BDC8
:10466C0028E6032020E60320D0500D0010B5836807
:10467C00044613B1032201469847204610BD002280
:10468C0040681146FFF756BF002240681146FFF7FD
:10469C0061BF40680022FFF755BF4068002281F0DF
:1046AC000101FFF73FBF002340681A461946FFF788
:1046BC0031BF002340681A461946FFF723BF00227A
:1046CC0040681146FFF716BF002240681146FFF7FD
:1046DC0001BF406800220221FFF704BF002340689D
:1046EC001A46FFF7EFBE0000024B03225A60024A43
:1046FC001A60704750E6032004510D007047F8B55E
:10470C00064615460C468F18BC4206D0336814F882
:10471C00011B9B6830469847F6E72846F8BD007C9D
:10472C000022FFF7C3BD007C0021FFF7C7BD007C52
:10473C000021FFF7CBBD007C0021FFF7CFBD007C33
:10474C000021FFF7D3BD10B51421044600F027FC5F
:10475C00204610BD10B54FF47A730446084600216C
:10476C00C4E90113034B236020741146FFF7CEFDFF
:10477C00204610BD38510D00704710B51821044665
:10478C0000F00DFC204610BDF0B5037D062B8DB05E
:10479C000E4600F104074FF0000412D000F108059A
:1047AC0015F8011D0A22304600F049F9AF420444C5
:1047BC0019D0002CF4D02E21304600F027F90444F7
:1047CC00EEE72F236A4639460A208DF80040FFF7A2
:1047DC00A5FD684600F030FC33680246DB6869468C
:1047EC0030469847044620460DB0F0BD10B5054B39
:1047FC000446112240F8043B002100F0F1FB204656
:10480C0010BD00BF60510D000346074A10B543F8B8
:10481C00042B01F1100251F8044B43F8044B914264
:10482C00F9D10A781A7010BD60510D0010B59DF8C1
:10483C00084044EA032343EA024242EA01610423AA
:10484C004160037510BD13B5CB7800938B784A7813
:10485C000978FFF7EBFF02B010BD0000014B024AD4
:10486C001A60704758E603206C510D000023406815
:10487C001A46FFF727BE406800220221FFF732BE1E
:10488C00002240681146FFF725BE00224068114601
:10489C00FFF730BE002340681A461946FFF732BEB8
:1048AC00002340681A461946FFF734BE40680022C0
:1048BC0081F00101FFF736BE40680022FFF742BECF
:1048CC00002240681146FFF745BE002240681146A1
:1048DC00FFF730BE2DE9F043002495B016460D4687
:1048EC000746FFF783FF214618220EA8009400F01C
:1048FC0077FB4023CDE90C3421466B460CAA30469D
:10490C00FFF71CFD0446002846D1024601216868C9
:10491C00FFF7F0FD0221804622466868FFF7EAFDAA
:10492C00009E81462146002E36D0002934D1736872
:10493C00022B03D00A2B0BD0F669F4E7B8F1000F69
:10494C0004D0716938460431FFF77DFF4146F3E727
:10495C00B9F1000F01D14946EEE77469102201A8A4
:10496C0000F03EFB06238DF8143001AD04F1080372
:10497C001834186859682A4603C20833A3421546EE
:10498C00F7D101A906A807ADFFF73EFF0FCD3C1DDF
:10499C000FC42B682370DEE70098FFF7C7FC38467E
:1049AC0015B0BDE8F0830000024B034A1A600022E8
:1049BC005A6070475CE6032078510D00F8B5064646
:1049CC000D468F180024BD420CD0336815F8011B1E
:1049DC009B6830469847031E01DB1C44F3E7002C10
:1049EC0008BF1C462046F8BD13B50446084659B10D
:1049FC00019100F021FB23680199DB6802462046F7
:104A0C0002B0BDE81040184702B010BD03689B68A7
:104A1C00184738B50D210546FFF7F8FF0A21044663
:104A2C002846FFF7F3FF204438BD38B50546FFF79D
:104A3C00DBFF04462846FFF7ECFF204438BD30B5B9
:104A4C008BB000238DF82430012A98BF0A2209ACC0
:104A5C000D46B1FBF2F101FB125303F0FF03092BDE
:104A6C0094BF30333733DBB2AA4204F8013DEFD99F
:104A7C002146FFF7B9FF0BB030BD10B50446FFF768
:104A8C00F5FD204610BD00000348044A04490023EC
:104A9C00836000F07FBA00BF64E6032004E50320C6
:104AAC00874A0D0010B5044608462170FFF74EFCEE
:104ABC0000236360204610BD10B5094B094C02223F
:104ACC0000201A60084B2060A080A071A360FFF743
:104ADC00CDFC2046054A0649BDE8104000F05ABA04
:104AEC0080E6032074E603200000FFFF04E50320AA
:104AFC00AB400D00024B1A68024B1A60704700BFA6
:104B0C009CE4032084E6032070474174704708B589
:104B1C00007CFFF763FC20EAE07008BD08B5007C60
:104B2C00FFF734FC20EAE07008BD08B5007CFFF705
:104B3C003DFC40EAE07008BD08B5007CFFF72EFC98
:104B4C0040EAE07008BD007CFFF738BC37B5457C07
:104B5C0004462DB1207C03B0BDE83040FFF70EBCFD
:104B6C00007C0191FFF73AFC00280199F2DC284601
:104B7C0003B030BD10B51421044600F010FA2046E5
:104B8C0010BD000010B54FF0000C0446084611464D
:104B9C004FF47A72C4E901C2044A226001222074E3
:104BAC0062741A46FFF7E2FB204610BDC8510D0097
:104BBC0013B50E4C2178BFF35B8F11F0010112D1AC
:104BCC0020460191FFF763FA019960B1084A094B3D
:104BDC000948FFF7D7FF2046FFF75EFA074A084956
:104BEC00054800F0D7F9044802B010BD88E6032050
:104BFC008CE6032010E7032094E7032004E5032050
:104C0C00154B0D0041747047704708B50021007CAE
:104C1C00FFF714FC40EAE07008BD08B50121007CE8
:104C2C00FFF70CFC40EAE07008BD08B5007CFFF70C
:104C3C00FDFB20EAE07008BD08B5007CFFF7EEFB39
:104C4C0020EAE07008BD13B50446007C0191FFF723
:104C5C00EDFB0028019901DC607C20B1207CFFF782
:104C6C00F5FB20EAE07002B010BD007CFFF7F6BB4C
:104C7C0010B51421044600F092F9204610BD000036
:104C8C0010B54FF47A73044608460021C4E90113A9
:104C9C00044B23600123207463741146FFF7AEFBB1
:104CAC00204610BDF8510D00007C0022FFF7AEBB72
:104CBC0010B514220446002100F092F9204610BDD4
:104CCC0010B5104C88B003A8FFF7F2FF2178BFF3A2
:104CDC005B8F11F0010111D120460191FFF7D7F93B
:104CEC00019958B103AA0848FFF7CAFF2046FFF7FD
:104CFC00D3F9064A0649044800F04CF9024808B0BA
:104D0C0010BD00BFA8E70320ACE7032004E5032097
:104D1C00154C0D00014B1860704700BFA0E4032038
:104D2C0008B50B4B43B1FFF7CBFF03681B699847E2
:104D3C00002801DDAFF30080064B43B1FFF738FFCD
:104D4C0003681B699847002801DDAFF3008008BD9C
:104D5C00000000000000000008B5FFF7E1FFFFF7BE
:104D6C0085FA014B186008BDD4E703200248034ABA
:104D7C000349121A00F026B900F4032004F40320AE
:104D8C0050520D0007B5002300931A466FF07701BF
:104D9C00FFF786FB03B05DF804FB000007B5438802
:104DAC000A2B08D0502B0BD1094B1B684BB103B00D
:104DBC005DF804EB1847FFF7E5FF03B05DF804FB63
:104DCC00002300931A466FF07701FFF769FBF4E7B5
:104DDC00C4E7032038B5124C1248134D0021FFF7DD
:104DEC00D1FB2368AB42114B0CBF012200221A707D
:104DFC0002D0FFF7BBFF2560FFF728FA044600F04E
:104E0C00F7F80B4B13B12046AFF300800021084894
:104E1C00FFF750FBBDE8384006480021FFF736BBD2
:104E2C0000F40320214D0D001E1C279AC0E703201F
:104E3C0000000000A94D0D00372837B5044602D9F3
:104E4C00002003B030BD031F022B0BD9012822D840
:104E5C0000F078F80021007CFFF750FA80F0010098
:104E6C00C0B2EEE7114D2978BFF35B8F11F0010151
:104E7C000BD128460191FFF70AF9019928B10C488A
:104E8C00FFF710FE2846FFF707F9094B1878FFF7D4
:104E9C0065FA0028D4D1083C012C05D8FFF788FE10
:104EAC00007CFFF793FAD9E70120CAE7C8E7032093
:104EBC00CCE70320372838B504460D460AD8FF291D
:104ECC0008D0FFF7B9FF28B129462046BDE8384085
:104EDC00FFF7D4B938BD38B504460D46FFF7D6F9FF
:104EEC00FF2810D0062804D84D2323FA00F0C3075E
:104EFC0009D42046FFF7A0FF28B129462046BDE87B
:104F0C003840FFF7CBB938BD38B500232025438096
:104F1C00142304460380856005610649284600F089
:104F2C0040F804496060284600F03BF8E0602046F9
:104F3C0038BD00BF20520D0010B50446FFF7E4FF4A
:104F4C00204610BD30B50F4D2978BFF35B8F11F0A3
:104F5C00010487B013D12846FFF799F878B101A85E
:104F6C00FFF7EAFF01AA21460748FFF7F3FB2846A3
:104F7C00FFF792F8054A0649034800F00BF802487F
:104F8C0007B030BDD8E70320DCE7032004E503209D
:104F9C0009470D000B460146184600F005B8FFF70F
:104FAC0074B8FFF770B8000010B5054C13462CB15F
:104FBC000A4601460220AFF3008010BD2046FCE7F4
:104FCC00000000000A44914200F1FF3300D1704709
:104FDC0010B511F8014B03F8014F9142F9D110BDF6
:104FEC0002440346934200D1704703F8011BF9E7D2
:104FFC0038B50D4B1D68AB6B04467BB91820FFF719
:10500C00B1FA0A4A0A4BA863C0E90023094B836032
:10501C000B23838101220023C0E90423AB6B002204
:10502C001C615A6138BD00BFA0E403200E33CDAB28
:10503C0034126DE6ECDE0500034613F8012B002A52
:10504C00FBD1181A013870471D400D0059400D0056
:10505C0081400D0085400D0000000000506F776509
:10506C00726564206F6E2042473936007365742078
:10507C0073657269616C20696E74657266616365D3
:10508C002075702077697468206D6F64656D00738E
:10509C00656E7420636D643120706172616D65742E
:1050AC006572730073656E7420636D643220706179
:1050BC0072616D6574657273000000000000000081
:1050CC00000000003F460D0035460D002B460D003C
:1050DC00E1450D001F460D0013460D0007460D005F
:1050EC00FF450D00F5450D00EB450D00E1480D00A9
:1050FC000000000000000000E9460D00DF460D0036
:10510C00D5460D00CB460D00BF460D00B3460D0035
:10511C00A7460D009F460D0095460D008B460D00D1
:10512C00E1480D00000000000000000009470D00E0
:10513C0053470D002B470D000B470D0033470D0057
:10514C003B470D0043470D004B470D00000000008E
:10515C000000000095470D0085470D0087470D00A6
:10516C0061707000000000000000000079480D0024
:10517C0083480D008D480D0097480D00A1480D0087
:10518C00AD480D00B9480D00C5480D00CD480D00C7
:10519C00D7480D00E1480D0025592D256D2D2564AE
:1051AC005425483A254D3A2553257A00617363748A
:1051BC00696D65000000000000000000154B0D003B
:1051CC00814B0D00594B0D00C9490D00294B0D00A9
:1051DC00454B0D00374B0D00534B0D00174B0D007D
:1051EC001B4B0D000000000000000000154C0D00D2
:1051FC007D4C0D00534C0D00C9490D00454C0D0064
:10520C00174C0D00274C0D00774C0D00374C0D0042
:10521C00114C0D000000000005420D00B9450D00B9
:10522C0049460D00F5460D0069480D00B5490D00C5
:10523C00954A0D00C54A0D00014B0D000000000001
:04524C00000000005E
:04525000000000005A
:1052540041542B514346473D226E777363616E6D13
:105264006F6465222C332C310D0A0041542B5143B9
:1052740046473D22696F746F706D6F6465222C30F0
:105284002C310D0A00000000B8510D00A4E40320E5
:10529400000000000000000000000000000000000A
:1052A40000000000000000000000000000000000FA
:1052B40000000000000000000000000000000000EA
:1052C40000000000000000000000000000000000DA
:1052D40000000000000000000000000000000000CA
:1052E40000000000000000000000000000000000BA
:1052F400FFFFFFFF00000102030405060708090A77
:105304000B0C0D0E0F101112131415161718191A71
:085314001B1C1D1E1F202800B8
:04531C007856341279
:04000003D000401CCD
:00000001FF
