:02000002D0002C
:1040000000400D005C530D00000006001A00050181
:08401000040135080000000066
:0440180084500D00C3
:10401C0009480A49884208B505D0094A824202D0AB
:10402C00121A00F0E7FF0748074A0021121A00F0A5
:10403C00EFFF014808BD00BF64E4032094520D005B
:10404C0004E5032004E50320F0E7032070B5074ED8
:10405C00074C00F0D7FEA41BA4080025A54200D1F4
:10406C0070BD56F8043B98470135F7E76C520D00CC
:10407C0090520D0000F01CB808B500F09BF8BDE89C
:10408C00084000F081BE00F07DBA00F083BA0078E1
:10409C00B0FA80F04009704701230370704710B5E7
:1040AC000446006808B100F075FA204610BD000007
:1040BC0070B500F01DFE4FF4E13100F00DFE012152
:1040CC001A2000F00FFF0121192000F00BFF002136
:1040DC001B2000F007FF00211A2000F014FF002124
:1040EC00192000F010FF642000F0B8F800F000FE7A
:1040FC002849294D00F0B1FC01211A2000F003FFE2
:10410C004FF4FA7000F0AAF800211A2000F0FBFE20
:10411C00224A2349012000F029F90023C0224FF440
:10412C00E131012000F062F900F0E2FD1D4900F0E0
:10413C0094FC41F2883000F03DFA00242E463046C3
:10414C0000F092FFA04206D915F8011B012000F0E7
:10415C0015F90134F3E700F0CBFD1349134D00F0D2
:10416C007CFC4FF47A7000F025FA00242E46304681
:10417C0000F07AFFA04206D915F8011B012000F0CF
:10418C00FDF80134F3E700F0B3FDBDE870400849D9
:10419C0000F063BC98500D0064E4032098E5032004
:1041AC0014E50320A8500D00CB500D007FE4032034
:1041BC00E0500D0010B5012000F0E8F850B10120DE
:1041CC0000F0ECF8044600F093FD0368E1B29B6844
:1041DC009847F0E700F08CFD03681B69984748B1DD
:1041EC0000F086FD03685B699847C1B2012000F0BE
:1041FC00C5F8EFE710BD000010B5094C0023236093
:10420C00A380A3710320A3F58033A36000F02EF9E3
:10421C002046044A0449BDE8104000F0D3BE00BF5C
:10422C0008E5032004E50320AB400D0008B5024B64
:10423C001B685B6C019308BD4802030008B5024B78
:10424C001B689B6C019308BD4802030008B5024B28
:10425C001B685B68019308BD1802030008B5024B8C
:10426C001B689B68019308BD1802030008B5024B3C
:10427C001B685B69019308BD1802030008B5024B6B
:10428C001B689B68019308BD2C02030008B5024B08
:10429C001B68DB68019308BD2C02030008B5024BB8
:1042AC001B681B69019308BD2C02030008B5024B67
:1042BC001B681B6A019308BD2802030008B5024B5A
:1042CC001B685B6A019308BD2802030008B5024B0A
:1042DC001B689B6A019308BD2802030008B5024BBA
:1042EC001B68DB6A019308BD2802030008B5024B6A
:1042FC001B681B6B019308BD2802030008B5024B19
:10430C001B685B6B019308BD2802030008B5024BC8
:10431C001B681B6C019308BD2802030008B5024BF7
:10432C001B685B69019308BD6402030008B5024B6E
:10433C001B689B68019308BD6802030008B5024B1B
:10434C001B68DB68019308BD6802030008B5024BCB
:10435C001B68DB69019308BD3002030008B5024BF2
:10436C001B681B6A019308BD3002030008B5024BA1
:10437C001B681B68019308BD3C02030008B5024B87
:10438C001B68DB68019308BD3C02030008B5024BB7
:10439C001B681B69019308BD3C02030008B5024B66
:1043AC001B685B69019308BD3C02030008B5024B16
:1043BC001B689B69019308BD3C02030008B5024BC6
:1043CC001B68DB69019308BD3C02030008B5024B76
:1043DC001B681B6A019308BD3C02030008B5024B25
:1043EC001B689B6A019308BD3C02030008B5024B95
:1043FC001B68DB6A019308BD3C02030008B5024B45
:10440C001B681B68019308BD4C02030008B5024BE6
:10441C001B685B68019308BD4C02030008B5024B96
:10442C001B681B69019308BD4C02030008B5024BC5
:10443C001B685B69019308BD4C02030008B5024B75
:10444C001B689B69019308BD4C02030008B5024B25
:10445C001B68DB69019308BD4C02030008B5024BD5
:10446C001B681B6A019308BD4C02030008B5024B84
:10447C001B685B68019308BD2002030008B5024B62
:10448C001B685B69019308BD2002030008B5034B50
:10449C001B68D3F88830019308BD0000200203008C
:1044AC0008B5034B1B68D3F89430019308BD00008A
:1044BC002002030008B5024B1B68DB6B019308BD9F
:1044CC004402030008B5024B1B685B68019308BDEE
:1044DC004002030008B5024B1B689B68019308BDA2
:1044EC004002030008B5024B1B68DB68019308BD52
:1044FC004002030008B5024B1B681B69019308BD01
:10450C004002030008B5024B1B685B69019308BDB0
:10451C004002030008B5024B1B689B69019308BD60
:10452C004002030008B5024B1B68DB69019308BD10
:10453C004002030008B5024B1B681B6A019308BDBF
:10454C004002030008B5024B1B681B6B019308BDAE
:10455C004002030008B5024B1B685B6B019308BD5E
:10456C004002030008B5024B1B681B6C019308BD8D
:10457C004002030008B5024B1B685B6C019308BD3D
:10458C004002030008B5024B1B681B68019308BD71
:10459C001C02030008B5024B1B685B68019308BD45
:1045AC001C02030008B5024B1B685B6C019308BD31
:1045BC001C0203000021FFF761BF10B50446006820
:1045CC0008B1FFF73BFE204610BD000010B5064CAD
:1045DC00002320462360FFF729FE2046034A0449A6
:1045EC00BDE8104000F0EEBC1CE6032004E50320FF
:1045FC00C7450D00002240681146FFF77BBF002223
:10460C0040681146FFF796BF002240681146FFF73D
:10461C00A1BF40680022FFF795BF4068002281F0DF
:10462C000101FFF77FBF002340681A461946FFF7C8
:10463C0071BF002340681A461946FFF763BF00227A
:10464C0040681146FFF746BF406800220221FFF781
:10465C0049BF002340681A46FFF734BF084B10B51A
:10466C00282422461846002100F0D2FC054B048079
:10467C004FF0FF32426004225A60034A1A6010BDA8
:10468C0028E6032020E6032000510D0010B58368B6
:10469C00044613B1032201469847204610BD002260
:1046AC0040681146FFF746BF002240681146FFF7ED
:1046BC0051BF40680022FFF745BF4068002281F0DF
:1046CC000101FFF72FBF002340681A461946FFF778
:1046DC0021BF002340681A461946FFF713BF00227A
:1046EC0040681146FFF706BF002240681146FFF7ED
:1046FC00F1BE406800220221FFF7F4BE002340689F
:10470C001A46FFF7DFBE0000024B03225A60024A32
:10471C001A60704750E603203C510D007047F8B505
:10472C00064615460C468F18BC4206D0336814F862
:10473C00011B9B6830469847F6E72846F8BD007C7D
:10474C000022FFF7B3BD007C0021FFF7B7BD007C52
:10475C000021FFF7BBBD007C0021FFF7BFBD007C33
:10476C000021FFF7C3BD10B51421044600F02FFC47
:10477C00204610BD10B54FF47A730446084600214C
:10478C00C4E90113034B236020741146FFF7BEFDEF
:10479C00204610BD78510D00704710B51821044605
:1047AC0000F015FC204610BDF0B5037D062B8DB036
:1047BC000E4600F104074FF0000412D000F108057A
:1047CC0015F8011D0A22304600F051F9AF4204449D
:1047DC0019D0002CF4D02E21304600F02FF90444CF
:1047EC00EEE72F236A4639460A208DF80040FFF782
:1047FC0095FD684600F038FC33680246DB68694674
:10480C0030469847044620460DB0F0BD10B5054B18
:10481C000446112240F8043B002100F0F9FB20462D
:10482C0010BD00BFA0510D000346074A10B543F858
:10483C00042B01F1100251F8044B43F8044B914244
:10484C00F9D10A781A7010BDA0510D0010B59DF861
:10485C00084044EA032343EA024242EA016104238A
:10486C004160037510BD13B5CB7800938B784A78F3
:10487C000978FFF7EBFF02B010BD0000014B024AB4
:10488C001A60704758E60320AC510D0000234068B5
:10489C001A46FFF717BE406800220221FFF722BE1E
:1048AC00002240681146FFF715BE002240681146F1
:1048BC00FFF720BE002340681A461946FFF722BEB8
:1048CC00002340681A461946FFF724BE40680021B1
:1048DC00FFF748BE40680021FFF74CBE406800223D
:1048EC0081F00101FFF71EBE40680022FFF72ABECF
:1048FC00002240681146FFF72DBE00224068114689
:10490C00FFF718BE2DE9F043002495B016460D466E
:10491C000746FFF77BFF214618220EA8009400F0F3
:10492C0077FB4023CDE90C3421466B460CAA30466C
:10493C00FFF704FD0446002846D1024601216868B1
:10494C00FFF7D8FD0221804622466868FFF7D2FDAA
:10495C00009E81462146002E36D0002934D1736842
:10496C00022B03D00A2B0BD0F669F4E7B8F1000F39
:10497C0004D0716938460431FFF775FF4146F3E7FF
:10498C00B9F1000F01D14946EEE77469102201A874
:10499C0000F03EFB06238DF8143001AD04F1080342
:1049AC001834186859682A4603C20833A3421546BE
:1049BC00F7D101A906A807ADFFF736FF0FCD3C1DB7
:1049CC000FC42B682370DEE70098FFF7AFFC384666
:1049DC0015B0BDE8F0830000024B034A1A600022B8
:1049EC005A6070475CE60320B8510D00F8B50646D6
:1049FC000D468F180024BD420CD0336815F8011BEE
:104A0C009B6830469847031E01DB1C44F3E7002CDF
:104A1C0008BF1C462046F8BD13B50446084659B1DC
:104A2C00019100F021FB23680199DB6802462046C6
:104A3C0002B0BDE81040184702B010BD03689B6877
:104A4C00184738B50D210546FFF7F8FF0A21044633
:104A5C002846FFF7F3FF204438BD38B50546FFF76D
:104A6C00DBFF04462846FFF7ECFF204438BD30B589
:104A7C008BB000238DF82430012A98BF0A2209AC90
:104A8C000D46B1FBF2F101FB125303F0FF03092BAE
:104A9C0094BF30333733DBB2AA4204F8013DEFD96F
:104AAC002146FFF7B9FF0BB030BD10B50446FFF738
:104ABC00EDFD204610BD00000348044A04490023C4
:104ACC00836000F07FBA00BF64E6032004E5032096
:104ADC00B74A0D0010B5044608462170FFF736FCA6
:104AEC0000236360204610BD10B5094B094C02220F
:104AFC0000201A60084B2060A080A071A360FFF713
:104B0C00B5FC2046054A0649BDE8104000F05ABAEB
:104B1C0080E6032074E603200000FFFF04E5032079
:104B2C00AB400D00024B1A68024B1A60704700BF75
:104B3C009CE4032084E6032070474174704708B559
:104B4C00007CFFF74BFC20EAE07008BD08B5007C48
:104B5C00FFF71CFC20EAE07008BD08B5007CFFF7ED
:104B6C0025FC40EAE07008BD08B5007CFFF716FC98
:104B7C0040EAE07008BD007CFFF720BC37B5457CEF
:104B8C0004462DB1207C03B0BDE83040FFF7F6BBE6
:104B9C00007C0191FFF722FC00280199F2DC2846E9
:104BAC0003B030BD10B51421044600F010FA2046B5
:104BBC0010BD000010B54FF0000C0446084611461D
:104BCC004FF47A72C4E901C2044A226001222074B3
:104BDC0062741A46FFF7CAFB204610BD10520D0036
:104BEC0013B50E4C2178BFF35B8F11F0010112D17C
:104BFC0020460191FFF74BFA019960B1084A094B25
:104C0C000948FFF7D7FF2046FFF746FA074A08493D
:104C1C00054800F0D7F9044802B010BD88E603201F
:104C2C008CE6032010E7032094E7032004E503201F
:104C3C00454B0D0041747047704708B50021007C4E
:104C4C00FFF7FCFB40EAE07008BD08B50121007CD1
:104C5C00FFF7F4FB40EAE07008BD08B5007CFFF7F5
:104C6C00E5FB20EAE07008BD08B5007CFFF7D6FB39
:104C7C0020EAE07008BD13B50446007C0191FFF7F3
:104C8C00D5FB0028019901DC607C20B1207CFFF76A
:104C9C00DDFB20EAE07002B010BD007CFFF7DEBB4C
:104CAC0010B51421044600F092F9204610BD000006
:104CBC0010B54FF47A73044608460021C4E9011379
:104CCC00044B23600123207463741146FFF796FB99
:104CDC00204610BD40520D00007C0022FFF796BB11
:104CEC0010B514220446002100F092F9204610BDA4
:104CFC0010B5104C88B003A8FFF7F2FF2178BFF372
:104D0C005B8F11F0010111D120460191FFF7BFF922
:104D1C00019958B103AA0848FFF7CAFF2046FFF7CC
:104D2C00BBF9064A0649044800F04CF9024808B0A1
:104D3C0010BD00BFA8E70320ACE7032004E5032067
:104D4C00454C0D00014B1860704700BFA0E40320D8
:104D5C0008B50B4B43B1FFF7CBFF03681B699847B2
:104D6C00002801DDAFF30080064B43B1FFF738FF9D
:104D7C0003681B699847002801DDAFF3008008BD6C
:104D8C00000000000000000008B5FFF7E1FFFFF78E
:104D9C006DFA014B186008BDD4E703200248034AA2
:104DAC000349121A00F026B900F4032004F403207E
:104DBC0090520D0007B5002300931A466FF077014F
:104DCC00FFF76EFB03B05DF804FB000007B54388EA
:104DDC000A2B08D0502B0BD1094B1B684BB103B0DD
:104DEC005DF804EB1847FFF7E5FF03B05DF804FB33
:104DFC00002300931A466FF07701FFF751FBF4E79D
:104E0C00C4E7032038B5124C1248134D0021FFF7AC
:104E1C00C9FB2368AB42114B0CBF012200221A7054
:104E2C0002D0FFF7BBFF2560FFF710FA044600F035
:104E3C00F7F80B4B13B12046AFF300800021084864
:104E4C00FFF738FBBDE8384006480021FFF71EBBD2
:104E5C0000F40320514D0D001E1C279AC0E70320BF
:104E6C0000000000D94D0D00372837B5044602D993
:104E7C00002003B030BD031F022B0BD9012822D810
:104E8C0000F078F80021007CFFF738FA80F0010080
:104E9C00C0B2EEE7114D2978BFF35B8F11F0010121
:104EAC000BD128460191FFF7F2F8019928B10C4873
:104EBC00FFF710FE2846FFF7EFF8094B1878FFF7BD
:104ECC004DFA0028D4D1083C012C05D8FFF788FEF8
:104EDC00007CFFF77BFAD9E70120CAE7C8E703207B
:104EEC00CCE70320372838B504460D460AD8FF29ED
:104EFC0008D0FFF7B9FF28B129462046BDE8384055
:104F0C00FFF7BCB938BD38B504460D46FFF7BEF9FE
:104F1C00FF2810D0062804D84D2323FA00F0C3072D
:104F2C0009D42046FFF7A0FF28B129462046BDE84A
:104F3C003840FFF7B3B938BD38B50023202543807E
:104F4C00142304460380856005610649284600F059
:104F5C0040F804496060284600F03BF8E0602046C9
:104F6C0038BD00BF68520D0010B50446FFF7E4FFD2
:104F7C00204610BD30B50F4D2978BFF35B8F11F073
:104F8C00010487B013D12846FFF781F878B101A846
:104F9C00FFF7EAFF01AA21460748FFF7EBFB28467B
:104FAC00FFF77AF8054A0649034800F00BF8024867
:104FBC0007B030BDD8E70320DCE7032004E503206D
:104FCC0029470D000B460146184600F005B8FFF7BF
:104FDC005CB8FFF758B8000010B5054C13462CB15F
:104FEC000A4601460220AFF3008010BD2046FCE7C4
:104FFC00000000000A44914200F1FF3300D17047D9
:10500C0010B511F8014B03F8014F9142F9D110BDC5
:10501C0002440346934200D1704703F8011BF9E7A1
:10502C0038B50D4B1D68AB6B04467BB91820FFF7E8
:10503C00A9FA0A4A0A4BA863C0E90023094B83600A
:10504C000B23838101220023C0E90423AB6B0022D4
:10505C001C615A6138BD00BFA0E403200E33CDABF8
:10506C0034126DE6ECDE0500034613F8012B002A22
:10507C00FBD1181A013870471D400D0059400D0026
:10508C0081400D0085400D0000000000506F7765D9
:10509C00726564206F6E2042473936007365742048
:1050AC0073657269616C20696E74657266616365A3
:1050BC002075702077697468206D6F64656D00735E
:1050CC00656E7420636D643120706172616D6574FE
:1050DC006572730073656E7420636D643220706149
:1050EC0072616D6574657273000000000000000051
:1050FC00000000005F460D0055460D004B460D00AC
:10510C0001460D003F460D0033460D00D9480D00F9
:10511C00E1480D0027460D001F460D0015460D00F9
:10512C000B460D0011490D000000000000000000AE
:10513C0009470D00FF460D00F5460D00EB460D002E
:10514C00DF460D00D3460D00D9480D00E1480D0097
:10515C00C7460D00BF460D00B5460D00AB460D0011
:10516C0011490D00000000000000000029470D004F
:10517C0073470D004B470D002B470D0053470D0097
:10518C005B470D0063470D006B470D0000000000EE
:10519C0000000000B5470D00A5470D00A7470D0006
:1051AC0061707000000000000000000099480D00C4
:1051BC00A3480D00AD480D00B7480D00C1480D00C7
:1051CC00CD480D00D9480D00E1480D00E9480D000F
:1051DC00F5480D00FD480D0007490D0011490D0063
:1051EC0025592D256D2D25645425483A254D3A25F4
:1051FC0053257A0061736374696D650000000000CB
:10520C0000000000454B0D00B14B0D00894B0D000B
:10521C00F9490D00594B0D00754B0D00674B0D00F6
:10522C00834B0D00474B0D004B4B0D000000000055
:10523C0000000000454C0D00AD4C0D00834C0D00E2
:10524C00F9490D00754C0D00474C0D00574C0D00E5
:10525C00A74C0D00674C0D00414C0D0000000000E8
:10526C0005420D00D9450D0069460D0015470D008E
:10527C0089480D00E5490D00C54A0D00F54A0D00A1
:04528C00314B0D0095
:04529000000000001A
:1052940041542B514346473D226E777363616E6DD3
:1052A4006F6465222C332C310D0A0041542B514379
:1052B40046473D22696F746F706D6F6465222C30B0
:1052C4002C310D0A0000000000520D00A4E403205C
:1052D40000000000000000000000000000000000CA
:1052E40000000000000000000000000000000000BA
:1052F40000000000000000000000000000000000AA
:105304000000000000000000000000000000000099
:105314000000000000000000000000000000000089
:105324000000000000000000000000000000000079
:10533400FFFFFFFF00000102030405060708090A36
:105344000B0C0D0E0F101112131415161718191A31
:085354001B1C1D1E1F20280078
:04535C007856341239
:04000003D000401CCD
:00000001FF
