:02000002D0002C
:1040000000400D009C520D00000006001A00050142
:08401000040135080000000066
:0440180020500D0027
:10401C0009480A49884208B505D0094A824202D0AB
:10402C00121A00F0B5FF0748074A0021121A00F0D7
:10403C00BDFF014808BD00BF64E40320D4510D004E
:10404C0004E5032004E50320F0E7032070B5074ED8
:10405C00074C00F0A5FEA41BA4080025A54200D126
:10406C0070BD56F8043B98470135F7E7A8510D0091
:10407C00CC510D0000F01CB808B500F07FF8BDE87D
:10408C00084000F04FBE00F061BA00F067BA00784B
:10409C00B0FA80F04009704701230370704710B5E7
:1040AC000446006808B100F059FA204610BD000023
:1040BC0070B500F0EBFD4FF4E13100F0DBFD0121B8
:1040CC001A2000F0DDFE0121192000F0D9FE00219C
:1040DC001B2000F0D5FE00211A2000F0E2FE00218A
:1040EC00192000F0DEFE642000F09CF801211A205B
:1040FC0000F0D7FE4FF4FA7000F094F800211A206B
:10410C0000F0CFFE194A1A491A4D012000F012F99D
:10411C000023C0224FF4E131012000F04BF941F2B1
:10412C00883000F02BFA00242E46304600F06AFF4F
:10413C00A04206D915F8011B012000F003F9013447
:10414C00F3E74FF47A700C4D00F018FA00242E4669
:10415C00304600F057FFA04206D915F8011B01208C
:10416C0000F0F0F80134F3E770BD00BF98E50320D0
:10417C0014E5032064E403207FE4032010B5012040
:10418C0000F0E8F850B1012000F0ECF8044600F023
:10419C007DFD0368E1B29B689847F0E700F076FD7F
:1041AC0003681B69984748B100F070FD03685B69B0
:1041BC009847C1B2012000F0C5F8EFE710BD000030
:1041CC0010B5094C00232360A380A3710320A3F531
:1041DC008033A36000F02EF92046044A0449BDE860
:1041EC00104000F0BDBE00BF08E5032004E503202D
:1041FC00AB400D0008B5024B1B685B6C019308BD0E
:10420C004802030008B5024B1B689B6C019308BD68
:10421C004802030008B5024B1B685B68019308BD9C
:10422C001802030008B5024B1B689B68019308BD7C
:10423C001802030008B5024B1B685B69019308BDAB
:10424C001802030008B5024B1B689B68019308BD5C
:10425C002C02030008B5024B1B68DB68019308BDF8
:10426C002C02030008B5024B1B681B69019308BDA7
:10427C002C02030008B5024B1B681B6A019308BD96
:10428C002802030008B5024B1B685B6A019308BD4A
:10429C002802030008B5024B1B689B6A019308BDFA
:1042AC002802030008B5024B1B68DB6A019308BDAA
:1042BC002802030008B5024B1B681B6B019308BD59
:1042CC002802030008B5024B1B685B6B019308BD09
:1042DC002802030008B5024B1B681B6C019308BD38
:1042EC002802030008B5024B1B685B69019308BDEB
:1042FC006402030008B5024B1B689B68019308BD60
:10430C006802030008B5024B1B68DB68019308BD0B
:10431C006802030008B5024B1B68DB69019308BDFA
:10432C003002030008B5024B1B681B6A019308BDE1
:10433C003002030008B5024B1B681B68019308BDD3
:10434C003C02030008B5024B1B68DB68019308BDF7
:10435C003C02030008B5024B1B681B69019308BDA6
:10436C003C02030008B5024B1B685B69019308BD56
:10437C003C02030008B5024B1B689B69019308BD06
:10438C003C02030008B5024B1B68DB69019308BDB6
:10439C003C02030008B5024B1B681B6A019308BD65
:1043AC003C02030008B5024B1B689B6A019308BDD5
:1043BC003C02030008B5024B1B68DB6A019308BD85
:1043CC003C02030008B5024B1B681B68019308BD37
:1043DC004C02030008B5024B1B685B68019308BDD7
:1043EC004C02030008B5024B1B681B69019308BD06
:1043FC004C02030008B5024B1B685B69019308BDB6
:10440C004C02030008B5024B1B689B69019308BD65
:10441C004C02030008B5024B1B68DB69019308BD15
:10442C004C02030008B5024B1B681B6A019308BDC4
:10443C004C02030008B5024B1B685B68019308BD76
:10444C002002030008B5024B1B685B69019308BD91
:10445C002002030008B5034B1B68D3F88830019386
:10446C0008BD00002002030008B5034B1B68D3F8FD
:10447C009430019308BD00002002030008B5024BE4
:10448C001B68DB6B019308BD4402030008B5024BAB
:10449C001B685B68019308BD4002030008B5024B22
:1044AC001B689B68019308BD4002030008B5024BD2
:1044BC001B68DB68019308BD4002030008B5024B82
:1044CC001B681B69019308BD4002030008B5024B31
:1044DC001B685B69019308BD4002030008B5024BE1
:1044EC001B689B69019308BD4002030008B5024B91
:1044FC001B68DB69019308BD4002030008B5024B41
:10450C001B681B6A019308BD4002030008B5024BEF
:10451C001B681B6B019308BD4002030008B5024BDE
:10452C001B685B6B019308BD4002030008B5024B8E
:10453C001B681B6C019308BD4002030008B5024BBD
:10454C001B685B6C019308BD4002030008B5024B6D
:10455C001B681B68019308BD1C02030008B5024BC5
:10456C001B685B68019308BD1C02030008B5024B75
:10457C001B685B6C019308BD1C0203000021FFF754
:10458C0061BF10B50446006808B1FFF73BFE20463A
:10459C0010BD000010B5064C002320462360FFF729
:1045AC0029FE2046034A0449BDE8104000F0D8BC5F
:1045BC001CE6032004E503208F450D000022406813
:1045CC001146FFF77BBF002240681146FFF796BFEC
:1045DC00002240681146FFF7A1BF40680022FFF798
:1045EC0095BF4068002281F00101FFF77FBF0023D7
:1045FC0040681A461946FFF771BF002340681A46F7
:10460C001946FFF763BF002240681146FFF746BF0B
:10461C00406800220221FFF749BF002340681A4678
:10462C00FFF734BF084B10B528242246184600214A
:10463C0000F0BCFC054B04804FF0FF3242600422BA
:10464C005A60034A1A6010BD28E6032020E60320B6
:10465C003C500D0010B58368044613B1032201468B
:10466C009847204610BD002240681146FFF746BF10
:10467C00002240681146FFF751BF40680022FFF747
:10468C0045BF4068002281F00101FFF72FBF0023D6
:10469C0040681A461946FFF721BF002340681A46A6
:1046AC001946FFF713BF002240681146FFF706BFFB
:1046BC00002240681146FFF7F1BE4068002202213B
:1046CC00FFF7F4BE002340681A46FFF7DFBE000078
:1046DC00024B03225A60024A1A60704750E60320CC
:1046EC0078500D007047F8B5064615460C468F18E5
:1046FC00BC4206D0336814F8011B9B6830469847BF
:10470C00F6E72846F8BD007C0022FFF7B3BD007C1D
:10471C000021FFF7B7BD007C0021FFF7BBBD007C7B
:10472C000021FFF7BFBD007C0021FFF7C3BD10B512
:10473C001421044600F019FC204610BD10B54FF4AE
:10474C007A73044608460021C4E90113034B236025
:10475C0020741146FFF7BEFD204610BDB4500D006D
:10476C00704710B51821044600F0FFFB204610BD21
:10477C00F0B5037D062B8DB00E4600F104074FF00B
:10478C00000412D000F1080515F8011D0A2230466C
:10479C0000F03BF9AF42044419D0002CF4D02E2188
:1047AC00304600F02FF90444EEE72F236A463946D1
:1047BC000A208DF80040FFF795FD684600F022FCBA
:1047CC0033680246DB686946304698470446204603
:1047DC000DB0F0BD10B5054B0446112240F8043B5A
:1047EC00002100F0E3FB204610BD00BFDC500D00A3
:1047FC000346074A10B543F8042B01F1100251F897
:10480C00044B43F8044B9142F9D10A781A7010BD4D
:10481C00DC500D0010B59DF8084044EA032343EA30
:10482C00024242EA016104234160037510BD13B5D5
:10483C00CB7800938B784A780978FFF7EBFF02B0BE
:10484C0010BD0000014B024A1A60704758E6032065
:10485C00E8500D00002340681A46FFF717BE406869
:10486C0000220221FFF722BE002240681146FFF70A
:10487C0015BE002240681146FFF720BE0023406899
:10488C001A461946FFF722BE002340681A461946FD
:10489C00FFF724BE40680021FFF748BE40680021A6
:1048AC00FFF74CBE4068002281F00101FFF71EBEED
:1048BC0040680022FFF72ABE002240681146FFF72D
:1048CC002DBE002240681146FFF718BE2DE9F043BB
:1048DC00002495B016460D460746FFF77BFF214690
:1048EC0018220EA8009400F061FB4023CDE90C3493
:1048FC0021466B460CAA3046FFF704FD04460028FF
:10490C0046D1024601216868FFF7D8FD0221804696
:10491C0022466868FFF7D2FD009E81462146002E94
:10492C0036D0002934D17368022B03D00A2B0BD05C
:10493C00F669F4E7B8F1000F04D071693846043118
:10494C00FFF775FF4146F3E7B9F1000F01D1494676
:10495C00EEE77469102201A800F028FB06238DF8FD
:10496C00143001AD04F108031834186859682A464C
:10497C0003C20833A3421546F7D101A906A807AD17
:10498C00FFF736FF0FCD3C1D0FC42B682370DEE7FD
:10499C000098FFF7AFFC384615B0BDE8F083000077
:1049AC00024B034A1A6000225A6070475CE60320EF
:1049BC00F4500D00F8B506460D468F180024BD4284
:1049CC000CD0336815F8011B9B6830469847031EC2
:1049DC0001DB1C44F3E7002C08BF1C462046F8BD45
:1049EC0013B50446084659B1019100F00BFB23683E
:1049FC000199DB680246204602B0BDE8104018471A
:104A0C0002B010BD03689B68184730B58BB000230B
:104A1C008DF82430012A98BF0A2209AC0D46B1FB4F
:104A2C00F2F101FB125303F0FF03092B94BF303357
:104A3C003733DBB2AA4204F8013DEFD92146FFF728
:104A4C00CFFF0BB030BD10B50446FFF703FE204678
:104A5C0010BD00000348044A04490023836000F0A1
:104A6C007FBA00BF64E6032004E50320534A0D001F
:104A7C0010B5044608462170FFF74CFC0023636018
:104A8C00204610BD10B5094B094C022200201A60BB
:104A9C00084B2060A080A071A360FFF7CBFC2046E0
:104AAC00054A0649BDE8104000F05ABA80E60320DA
:104ABC0074E603200000FFFF04E50320AB400D006B
:104ACC00024B1A68024B1A60704700BF9CE403202B
:104ADC0084E6032070474174704708B5007CFFF7EB
:104AEC0061FC20EAE07008BD08B5007CFFF732FCE1
:104AFC0020EAE07008BD08B5007CFFF73BFC40EAFB
:104B0C00E07008BD08B5007CFFF72CFC40EAE070B3
:104B1C0008BD007CFFF736BC37B5457C04462DB18B
:104B2C00207C03B0BDE83040FFF70CBC007C019149
:104B3C00FFF738FC00280199F2DC284603B030BDA1
:104B4C0010B51421044600F010FA204610BD0000E8
:104B5C0010B54FF0000C0446084611464FF47A721B
:104B6C00C4E901C2044A22600122207462741A460C
:104B7C00FFF7E0FB204610BD4C510D0013B50E4C59
:104B8C002178BFF35B8F11F0010112D12046019106
:104B9C00FFF77DFA019960B1084A094B0948FFF704
:104BAC00D7FF2046FFF778FA074A0849054800F076
:104BBC00D7F9044802B010BD88E603208CE6032028
:104BCC0010E7032094E7032004E50320E14A0D00DD
:104BDC0041747047704708B50021007CFFF712FC48
:104BEC0040EAE07008BD08B50121007CFFF70AFC23
:104BFC0040EAE07008BD08B5007CFFF7FBFB20EA3B
:104C0C00E07008BD08B5007CFFF7ECFB20EAE07013
:104C1C0008BD13B50446007C0191FFF7EBFB00289F
:104C2C00019901DC607C20B1207CFFF7F3FB20EACA
:104C3C00E07002B010BD007CFFF7F4BB10B514217E
:104C4C00044600F092F9204610BD000010B54FF458
:104C5C007A73044608460021C4E90113044B23600F
:104C6C000123207463741146FFF7ACFB204610BD82
:104C7C007C510D00007C0022FFF7ACBB10B5142258
:104C8C000446002100F092F9204610BD10B5104CDE
:104C9C0088B003A8FFF7F2FF2178BFF35B8F11F008
:104CAC00010111D120460191FFF7F1F9019958B199
:104CBC0003AA0848FFF7CAFF2046FFF7EDF9064A9A
:104CCC000649044800F04CF9024808B010BD00BF7A
:104CDC00A8E70320ACE7032004E50320E14B0D001B
:104CEC00014B1860704700BFA0E4032008B50B4BC4
:104CFC0043B1FFF7CBFF03681B699847002801DD20
:104D0C00AFF30080064B43B1FFF738FF03681B6914
:104D1C009847002801DDAFF3008008BD00000000BB
:104D2C000000000008B5FFF7E1FFFFF783FA014B25
:104D3C00186008BDD4E703200248034A0349121A3D
:104D4C0000F026B900F4032004F40320D0510D0028
:104D5C0007B5002300931A466FF07701FFF784FB29
:104D6C0003B05DF804FB000007B543880A2B08D09C
:104D7C00502B0BD1094B1B684BB103B05DF804EB06
:104D8C001847FFF7E5FF03B05DF804FB0023009321
:104D9C001A466FF07701FFF767FBF4E7C4E70320CF
:104DAC0038B5124C1248134D0021FFF7DFFB236876
:104DBC00AB42114B0CBF012200221A7002D0FFF73C
:104DCC00BBFF2560FFF726FA044600F0F7F80B4B03
:104DDC0013B12046AFF3008000210848FFF74EFBCB
:104DEC00BDE8384006480021FFF734BB00F403202F
:104DFC00ED4C0D001E1C279AC0E70320000000009C
:104E0C00754D0D00372837B5044602D9002003B084
:104E1C0030BD031F022B0BD9012822D800F078F8E3
:104E2C000021007CFFF74EFA80F00100C0B2EEE7E3
:104E3C00114D2978BFF35B8F11F001010BD128467E
:104E4C000191FFF724F9019928B10C48FFF710FEE6
:104E5C002846FFF721F9094B1878FFF763FA002869
:104E6C00D4D1083C012C05D8FFF788FE007CFFF755
:104E7C0091FAD9E70120CAE7C8E70320CCE7032061
:104E8C00372838B504460D460AD8FF2908D0FFF755
:104E9C00B9FF28B129462046BDE83840FFF7D2B902
:104EAC0038BD38B504460D46FFF7D4F9FF2810D0AD
:104EBC00062804D84D2323FA00F0C30709D4204652
:104ECC00FFF7A0FF28B129462046BDE83840FFF780
:104EDC00C9B938BD38B500232025438014230446B6
:104EEC000380856005610649284600F040F80449B6
:104EFC006060284600F03BF8E060204638BD00BFFB
:104F0C00A4510D0010B50446FFF7E4FF204610BD78
:104F1C0030B50F4D2978BFF35B8F11F0010487B0CA
:104F2C0013D12846FFF7B3F878B101A8FFF7EAFFD1
:104F3C0001AA21460748FFF701FC2846FFF7ACF809
:104F4C00054A0649034800F00BF8024807B030BD8B
:104F5C00D8E70320DCE7032004E50320F1460D002D
:104F6C000B460146184600F005B8FFF78EB8FFF760
:104F7C008AB8000010B5054C13462CB10A46014600
:104F8C000220AFF3008010BD2046FCE700000000BB
:104F9C000A44914200F1FF3300D1704710B511F86B
:104FAC00014B03F8014F9142F9D110BD0244034665
:104FBC00934200D1704703F8011BF9E738B50D4B4C
:104FCC001D68AB6B04467BB91820FFF7BFFA0A4A81
:104FDC000A4BA863C0E90023094B83600B23838130
:104FEC0001220023C0E90423AB6B00221C615A612F
:104FFC0038BD00BFA0E403200E33CDAB34126DE6F8
:10500C00ECDE0500034613F8012B002AFBD1181A1D
:10501C00013870471D400D0059400D0081400D00B6
:10502C0085400D00000000000000000000000000A2
:10503C0027460D001D460D0013460D00C9450D00F9
:10504C0007460D00FB450D00A1480D00A9480D00B9
:10505C00EF450D00E7450D00DD450D00D3450D0076
:10506C00D9480D000000000000000000D1460D00E2
:10507C00C7460D00BD460D00B3460D00A7460D00FA
:10508C009B460D00A1480D00A9480D008F460D0050
:10509C0087460D007D460D0073460D00D9480D0066
:1050AC000000000000000000F1460D003B470D0021
:1050BC0013470D00F3460D001B470D0023470D0051
:1050CC002B470D0033470D000000000000000000CE
:1050DC007D470D006D470D006F470D00617070002E
:1050EC00000000000000000061480D006B480D003E
:1050FC0075480D007F480D0089480D0095480D003E
:10510C00A1480D00A9480D00B1480D00BD480D0087
:10511C00C5480D00CF480D00D9480D0025592D2547
:10512C006D2D25645425483A254D3A2553257A0092
:10513C0061736374696D650000000000000000007D
:10514C00E14A0D004D4B0D00254B0D00C1490D00E2
:10515C00F54A0D00114B0D00034B0D001F4B0D00BC
:10516C00E34A0D00E74A0D000000000000000000BB
:10517C00E14B0D00494C0D001F4C0D00C1490D00B9
:10518C00114C0D00E34B0D00F34B0D00434C0D0087
:10519C00034C0D00DD4B0D0000000000CD410D0057
:1051AC00A1450D0031460D00DD460D0051480D00A6
:1051BC00AD490D00614A0D00914A0D00CD4A0D001C
:0451CC0000000000DF
:0451D00000000000DB
:1051D40041542B514346473D226E777363616E6D94
:1051E4006F6465222C312C310D0A0041542B51433C
:1051F40046473D22696F746F706D6F6465222C3071
:105204002C310D0A000000003C510D00A4E40320E1
:10521400000000000000000000000000000000008A
:10522400000000000000000000000000000000007A
:10523400000000000000000000000000000000006A
:10524400000000000000000000000000000000005A
:10525400000000000000000000000000000000004A
:10526400000000000000000000000000000000003A
:10527400FFFFFFFF00000102030405060708090AF7
:105284000B0C0D0E0F101112131415161718191AF2
:085294001B1C1D1E1F20280039
:04529C0078563412FA
:04000003D000401CCD
:00000001FF
